:020000040000FA
:060000000A128A11F62F1E
:100E64000134073083160313850086018701880146
:100E740089018316031788018901831203138501ED
:100E840086018701880189010800831203138511F3
:100E9400051287018801013089004F308600063031
:100EA400F2001330F100AD30F000F00B572FF10BCE
:100EB400572FF20B572F5E2F023083120313890032
:100EC4005B3086000630F2001330F100AD30F000E4
:100ED400F00B6A2FF10B6A2FF20B6A2F712F04307B
:100EE400831203138900063086000630F2001330A3
:100EF400F100AD30F000F00B7D2FF10B7D2FF20BE4
:100F04007D2F842F8312031389013F30860008004C
:100F14000A128A1133270A128A11F501F50A83127B
:100F240003130519962F972FA32F0A128A11472707
:100F34000A128A11F501013083120313870001306C
:100F440088000518A62FA72FBF2F7508031DAB2FE8
:100F5400AC2FBF2F051CAF2FB02FAC2F8230F40065
:100F6400DD30F300F30BB42FF40BB42FB92F83123D
:100F740003130708F300730787008518C22FC32FD4
:100F8400DB2F7508031DC72FC82FDB2F851CCB2F24
:100F9400CC2FC82F8230F400DD30F300F30BD02FB8
:100FA400F40BD02FD52F831203130808F300730713
:100FB400880080300706031DE02FE12FE72F06305D
:100FC4008600F501F50A8515912F80300806031D6A
:100FD400EC2FED2F912F5B308600F501F50A0516F5
:100FE400912F0A128A1100280A128A1132270A1232
:0C0FF4008A11F50083010A128A118A2F6D
:04400E00D4E0FFFFFC
:00000001FF
