:020000040000FA
:060000000A128A11F22F22
:100DD00001340730831603138500860187018801DB
:100DE0008901831603178801890183120313850182
:100DF0008601870188018901080083120313851188
:100E0000051287018801013089004F3086000630C5
:100E1000F2001330F100AD30F000F00B0D2FF10BAC
:100E20000D2FF20B0D2F142F0230831203138900A4
:100E30005B3086000630F2001330F100AD30F00078
:100E4000F00B202FF10B202FF20B202F272F043037
:100E5000831203138900063086000630F200133037
:100E6000F100AD30F000F00B332FF10B332FF20B0C
:100E7000332F3A2F8312031389013F308600080075
:100E80000A128A11E9260A128A11F901F90A831253
:100E9000031305194C2F4D2F612F0A128A11FD26BD
:100EA0000A128A11F9010130F7000030F800013010
:100EB0008312031387000130F5000030F600013083
:100EC00088000518642F652F9C2F7908031D692F52
:100ED0006A2F9C2F8230F400DD30F300F30B6E2F6D
:100EE000F40B6E2F732F83120313051C782F792FA9
:100EF000812F0310770DF700780DF8007708870031
:100F00009C2F8518842F852F9C2F8230F400DD3094
:100F1000F300F30B892FF40B892F8E2F8312031309
:100F2000851C932F942F9C2F0310750DF500760DC3
:100F3000F600750888009C2F85189F2FA02FD72FAB
:100F40007908031DA42FA52FD72F8230F400DD30A0
:100F5000F300F30BA92FF40BA92FAE2F8312031369
:100F6000851CB32FB42FBC2F0310750DF500760D23
:100F7000F60075088800D72F0518BF2FC02FD72F70
:100F80008230F400DD30F300F30BC42FF40BC42FD8
:100F9000C92F83120313051CCE2FCF2FD72F031079
:100FA000770DF700780DF80077088700D72F7803C2
:100FB0007704031DDC2FDD2FE32F06308600F901B7
:100FC000F90A8515472F76037504031DE82FE92FCD
:100FD000472F5B308600F901F90A0516472F0A12E0
:100FE0008A1100280A128A11E8260A128A11F900C9
:100FF000F501F601F701F80183010A128A11402F69
:04400E00D4E0FFFFFC
:00000001FF
